:100000006F00000A1300000013000000130000003E
:10001000232E11FE232C51FE232A61FE232871FE7C
:100020002326A1FE2324B1FE2322C1FE2320D1FEDC
:10003000232EE1FC232CF1FC232A01FD232811FDB2
:100040002326C1FD2324D1FD2322E1FD2320F1FD40
:10005000130101FCEF00405E8320C1038322810372
:1000600003234103832301030325C1028325810266
:1000700003264102832601020327C1018327810150
:100080000328410183280101032EC100832E810032
:10009000032F4100832F010013010104730020305E
:1000A00097010040938101761381010A1715000022
:1000B0001305853F970500409385C5F4138641805D
:1000C00063DCC5008326050023A0D5001305450089
:1000D00093854500E3C8C5FE170500401305C5F22A
:1000E0009385C1C96308B5002320050013054500A9
:1000F0006FF05FFF171500001305053B1301C1FFEB
:10010000971500009385453A630EB50083260500D8
:10011000130545002320A100E78006000325010008
:100120006FF01FFE13014100EF00C00D6F000000D3
:100130006340050663C605061386050093050500A2
:100140001305F0FF630C060293061000637AB600F5
:100150006358C0001316160093961600E36AB6FEA5
:100160001305000063E6C500B385C5403365D500BF
:1001700093D6160013561600E39606FE678000001D
:1001800093820000EFF05FFB13850500678002009B
:100190003305A0406348B000B305B0406FF0DFF90D
:1001A000B305B04093820000EFF01FF93305A04083
:1001B000678002009382000063CA0500634C05005B
:1001C000EFF09FF71385050067800200B305B0408C
:1001D000E35805FE3305A040EFF01FF63305B040AD
:1001E000678002009307A0006318F500B70700833B
:1001F0001307D00023A0E700B707008323A0A700C0
:1002000067800000B70700831307800D23A2E70073
:100210009306F003370700822324D7002320D7005A
:100220003707008183260700370610009305D000AA
:10023000B3E6C6002320D700832607003706400018
:10024000B3E6C6002320D7001307D00023A0E700A1
:100250001307A00023A0E7001307000223A0E70074
:100260003717000093070002130757151306A00065
:10027000B7060083130717006386C73A23A0F6006A
:1002800083470700E39807FEB707008313070002C0
:1002900023A0E700371700001307D7179307C007FD
:1002A0001306A000B70600839305D00013071700BC
:1002B0006380C73623A0F60083470700E39807FE54
:1002C000B70700831307000223A0E70037170000D9
:1002D0009307C0071307571A1306A000B706008339
:1002E0009305D00013071700638AC73023A0F600D8
:1002F00083470700E39807FEB70700831307000250
:1003000023A0E700371700001307971C9307C007C7
:100310001306A000B70600839305D000130717004B
:100320006384C72C23A0F60083470700E39807FEE9
:10033000B70700831307000223A0E7003717000068
:100340009307C0071307171F1306A000B706008303
:100350009305D00013071700638EC72623A0F6006D
:1003600083470700E39807FEB70700831307D00011
:1003700023A0E7001307A00023A0E7001307000253
:1003800023A0E700B7170000938797211306A0006A
:10039000B70600839305D000938717006302C72236
:1003A00023A0E60003C70700E31807FEB707008392
:1003B0001307D00023A0E7001307A00023A0E70045
:1003C000938741C723A0070083A6070037270000B3
:1003D0001307F770634CD70083A6070093861600B7
:1003E00023A0D70083A60700E358D7FE3707008273
:1003F0009306E0032320D70023A0070003A70700EC
:10040000B72600009386F67063CCE60003A70700CA
:100410001307170023A0E70003A70700E3D8E6FEB1
:10042000370700829306D0032320D70023A00700BC
:1004300003A70700B72600009386F67063CCE6009A
:1004400003A707001307170023A0E70003A707006F
:10045000E3D8E6FE370700829306B0032320D700D7
:1004600023A0070003A70700B72600009386F670B5
:1004700063CCE60003A707001307170023A0E700DB
:1004800003A70700E3D8E6FE370700829306700350
:100490002320D70023A0070003A70700B7260000EA
:1004A0009386F67063CCE60003A7070013071700D6
:1004B00023A0E70003A70700E3D8E6FE3707008282
:1004C0009306F0022320D70023A0070003A707000C
:1004D000B72600009386F67063CCE60003A70700FA
:1004E0001307170023A0E70003A70700E3D8E6FEE1
:1004F000370700829306F0012320D70023A00700CE
:1005000003A70700B72600009386F67063CCE600C9
:1005100003A707001307170023A0E70003A707009E
:10052000E3D8E6FE370700829306F0032320D700C6
:1005300023A0070003A70700B72600009386F670E4
:1005400063CCE60003A707001307170023A0E7000A
:1005500003A70700E3D8E6FE370700822320070041
:1005600023A0070003A70700B72600009386F670B4
:1005700063CCE60003A707001307170023A0E700DA
:1005800003A70700E3D8E6FE370700829306F003CF
:100590002320D70023A0070003A70700B7260000E9
:1005A0009386F67063CCE60003A7070013071700D5
:1005B00023A0E70003A70700E3D8E6FE6F0010388A
:1005C00023A0B60023A0E60003C70700E31607DC5C
:1005D0006FF0DFDD23A0B60023A0F60083470700FD
:1005E000E39A07D66FF05FD823A0B60023A0F600E9
:1005F00083470700E39407D26FF09FD323A0B60090
:1006000023A0F60083470700E39E07CC6FF0DFCE00
:1006100023A0B60023A0F60083470700E39807C88D
:100620006FF01FCA23A0B60023A0F600834707007F
:10063000E39207C46FF05FC567800000130101FFFC
:10064000232601000327C1009307E00163C8E702E6
:100650009306E0018327C1000327C10093C7F7FF7A
:10066000130717002326E100939727000327C100F3
:10067000B307F50023A00700E3DEE6FC1301010148
:100680006780000003C701C863080712938741C150
:1006900003A6C7009306200083A5C1C76302D61234
:1006A000930610006306D71003A6470293062000A6
:1006B0006306D60E930620006300D70203A6C70385
:1006C0006308D610930630006308D70003A64705D9
:1006D00093062000630CD61083A6C700639C060A0D
:1006E0001306100083C687006308C70C83A5470262
:1006F000130600006396050083C5070263E2D50E6A
:100700009305200063D6E50283A5C7036396050021
:1007100083C5870363E4D50E93053000630AB700F1
:1007200003A747056316070083C7070563EED70CC9
:10073000938681C783C50600638AC5061397150093
:100740003307B700938741C1131737003387E7009A
:100750000325C700930510006314B5002326070086
:10076000B70500409385450003A505001317160043
:100770003307C70013173700B387E70013071500C7
:100780001305100023A6A7002380C60023A0E500C0
:10079000678000009306F00F6FF05FF583A6870275
:1007A000E3EAD5F023A207026FF0DFF067800000D4
:1007B00083A6C700E38606F2130600006FF05FF71A
:1007C00083A60701E3EED5EC23A607006FF05FEDEB
:1007D00083A60704E3E8D5EE23AE07026FF09FEE91
:1007E00093860500130610006FF09FF183A687051E
:1007F000E3E4D5EE23AA07046FF01FEE938605000D
:10080000130620006FF05FF1130630006FF05FF207
:10081000130101FD23248100232611001304050088
:1008200003450500232AB100232CC100232ED1004B
:100830002320E1022322F1022324010323261103B2
:10084000630A050013041400EFF0DF990345040068
:10085000E31A05FE8320C100032481001301010374
:1008600067800000130101FE232E1100232C81005C
:10087000232A910023282101232631012324410129
:10088000938601C883C70600130730006366F70824
:10089000139417003304F400139787009384418165
:1008A000B384E40013173400138441C13304E4001B
:1008B000130805001387C40F23AE040F138A050025
:1008C000930906001385840F138907002322E4008F
:1008D000938717009384C4072380F600EFF01FD698
:1008E0002320940023044401232604002328040029
:1008F000232A34018320C10103248101832441017F
:100900008329C100032A810013050900032901017D
:1009100013010102678000001309F0FF6FF09FFDD3
:1009200083C791C763940700678000006FF09FD56D
:1009300003A5C1C783A641C8B707004083A5070028
:10094000130101FE03CE91C7138641C1232E11006E
:10095000232A91002328210123263101232C810001
:100960002324410103C801C883C981C78323060129
:100970008320860283240604032986058342860099
:10098000034F0602834F8603034406051305150033
:100990001303100093082000930E3000F32700C0CB
:1009A0003387D740E36CB7FE732700C0630E0E0A8F
:1009B000630008100327C6006300170D6304680C6A
:1009C00003274602630A170D630C18010327C603A9
:1009D000630A170D6306D80103274605630E170D3A
:1009E0000327C6006304070A1307F00F032A460211
:1009F0009306000063180A006376EF0013070F00E8
:100A00009306100063D60803032AC60363180A007E
:100A100063F6EF0013870F0093062000630AD801E6
:100A2000032A460563160A006374E4009306300047
:100A3000638CD90213971900330737011317370056
:100A40003307E6008329C700639469002326070063
:100A5000139716003307D700131737003307E60044
:100A60002326670093890600732700C0130515002D
:100A7000938607006FF09FF2E36275F42326060069
:100A8000E31068F40327C6006314070263026802D8
:100A9000138702006FF09FF5E36815F22322060228
:100AA0006FF09FF2E36895F2232E06026FF09FF23B
:100AB000930600006FF0DFF7E36425F3232A0604B2
:100AC0006FF01FF2130101FE232601000327C1006E
:100AD000232E81009307300063CCE70A3713000010
:100AE000138841C113038323930830000324C100FA
:100AF0008323C1008322C100832FC100032FC100C3
:100B0000832EC100032EC10013151400939513000A
:100B1000130E1E001396120093961F0013171F004A
:100B200093971E0033058500B38575003306560084
:100B3000B386F6013307E701B387D7012326C10146
:100B4000131535009395350013163600939636002D
:100B50001317370093973700032EC1003305A80001
:100B6000B305B8003306C800B306D8003307E80061
:100B7000B307F80023261501238405002328060067
:100B800023AA66002322070023A00700E3D0C8F7AA
:100B9000238C01C60324C101238001C8B70700408C
:100BA0009387470023AE01C6A38C01C623A007008C
:100BB00023A2070023A4070023A6070013010102B4
:100BC0006780000083C701C863860702930710008F
:100BD00023A0F1C2238C01C6A38CF1C6B767000025
:100BE00037070040938777252320F700732700C03D
:100BF00023A2E1C867800000B707004003A54700B3
:100C000067800000B70700409387470083A5C700AF
:100C10006380050203A58700130101FF232611004D
:100C2000EFF08FD18320C100130101016780000024
:100C3000138505006780000003A5C1C76780000019
:100C4000130101FC23282103138901C883470900EC
:100C5000232E1102232C8102232A91022326310301
:100C6000232441032322510323206103232E7101F6
:100C7000232C8101232A91012328A1012326B101DC
:100C80006386070E371B0000B71A0000371A0000F2
:100C9000938401C213040000130B8B24938ACA248B
:100CA000130A0A2493091000930B2000930C3000C0
:100CB000371C0000371D0000930D0A001305400586
:100CC000938D1D00EFF00FD203C50D00E31A05FE52
:100CD000630604106302341963067419630A9419D5
:100CE000930D0B001305D005938D1D00EFF08FCFF2
:100CF00003C50D00E31A05FE83AD840003C50D0096
:100D0000630A0500938D1D00EFF0CFCD03C50D00E4
:100D1000E31A05FE938D0A001305C002938D1D0092
:100D2000EFF04FCC03C50D00E31A05FE03A7040046
:100D3000630C07066306370F930D0C271305400558
:100D40006304770B938D1D00EFF0CFC903C50D0031
:100D5000E31A05FE1305A000EFF0CFC88347090092
:100D60001304140093848401E348F4F48320C10342
:100D70000324810383244103032901038329C1023E
:100D8000032A8102832A4102032B0102832BC10122
:100D9000032C8101832C4101032D0101832DC1000E
:100DA0001301010467800000930D8D2513052005B4
:100DB000938D1D00EFF00FC303C50D00E31A05FE70
:100DC0001305A000EFF00FC28347090013041400BD
:100DD00093848401E342F4EE6FF05FF9130500039E
:100DE000EFF04FC06FF0DFEFB7170000938D87264D
:100DF00013052004938D1D00EFF0CFBE03C50D0039
:100E0000E31A05FE1305A000EFF0CFBD83470900EC
:100E10001304140093848401E340F4EA6FF01FF597
:100E2000B7170000938D072613052005938D1D002D
:100E3000EFF04FBB03C50D00E31A05FE1305A0003C
:100E4000EFF04FBA83470900130414009384840120
:100E5000E344F4E66FF09FF113051003EFF08FB851
:100E60006FF01FE813052003EFF0CFB76FF05FE7D7
:100E700013053003EFF00FB76FF09FE6130101FE8B
:100E8000232C8100232A91002328210123263101CC
:100E900023244101232E1100EFF01FDA1304050073
:100EA000938481C9371A00009309301F37090082E3
:100EB00083A70400930504001305CA27B307F44071
:100EC00063FCF9008327490093C717002322F90028
:100ED00023A08400EFF0DF93EFF01FD6130405008A
:100EE000EFF01FA46FF0DFFC130101FE232C810043
:100EF000232A9100232821012326310123244101A3
:100F0000232E1100EFF05FD313040500938481C8F2
:100F1000138941C9371A00009309F07C83A50400A6
:100F20008327090013054A2993851500B307F44068
:100F300023A0B40063F6F900EFF09F8D2320890011
:100F4000EFF09FCF13040500EFF09F9D6FF01FFDA2
:100F5000130101FE232A91002328210123263101B8
:100F6000232E1100232C8100938401C9B71900009E
:100F7000370900820324090083A504001385492B47
:100F80001306040063868500EFF09F8823A0840089
:100F9000EFF01F996FF01FFE130101FD2324810262
:100FA0002322910223202103232E3101232C4101EE
:100FB000232A5101232861012326710123261102CE
:100FC000EFF09FC7130405009384C1C8B719000050
:100FD000B71B0000371B0000B71A0000371A0000CB
:100FE0001309703E83A704001385C92DB307F4408D
:100FF0006372F904EFF0DF819305040013858B2FF2
:10100000EFF01F81EFF05FBF930505001305CB30B4
:10101000EFF01F80EFF01FBF9305050013854A32E4
:10102000EFF00FFFEFF0DFC113058A34EFF04FFE52
:1010300023A08400EFF05FC013040500EFF05F8E83
:101040006FF05FFA37150000130101FF13054536F5
:1010500023261100EFF0CFFB3715000013050539EB
:10106000EFF00FFBEFF01FA637160000371500005A
:101070001306C63A930510001305C5E7EFF08FFE7F
:10108000634A050093050500371500001305853BED
:10109000EFF00FF837160000371500001306C63DB5
:1010A00093052000130585F9EFF0CFFB634A050097
:1010B00093050500371500001305853EEFF04FF549
:1010C00037160000371500001306C64093053000A0
:1010D000130585EEEFF00FF9634A0500930505004F
:1010E0003715000013054541EFF08FF23716000069
:1010F000371500001306464393052000130505F538
:10110000EFF04FF6634A0500930505003715000020
:1011100013054544EFF0CFEF371500001305854662
:10112000EFF00FEFEFF01FAA8320C100371500008A
:1011300013050548130101016FF08FED130101FF45
:1011400023261100EFF01FF08320C10013010101DD
:101150006FF00FFE20205F5F5F5F20205F20202068
:10116000202020202020205F5F5F5F202020202083
:10117000202020205F5F5F5F0A000000207C20208D
:101180005F205C285F29205F5F5F205F5F5F2F200B
:101190005F5F5F7C20205F5F5F20202F205F5F5FAD
:1011A0007C0A0000207C207C5F29207C207C2F2072
:1011B0005F5F2F205F205C5F5F5F205C202F205FE0
:1011C000205C7C207C0A0000207C20205F5F2F7C3C
:1011D000207C20285F7C20285F29207C5F5F2920DD
:1011E0007C20285F29207C207C5F5F5F0A00000054
:1011F000207C5F7C2020207C5F7C5C5F5F5F5C5F8D
:101200005F5F2F5F5F5F5F2F205C5F5F5F2F205C02
:101210005F5F5F5F7C0A00002020202020202020CC
:101220004F6E204C69636865652054616E67204E7F
:10123000616E6F2D394B0A00756E75736564000021
:101240005461736B5B0000005D3A20002C205374E6
:101250006174653A20000000524541445900000085
:1012600052554E4E494E4700424C4F434B45440069
:101270005445524D494E4154454400004C4544208C
:10128000546F67676C65206174207469636B2025F7
:10129000640A0000436F756E746572205461736B4D
:1012A0003A20256420697465726174696F6E730AEF
:1012B000000000004750494F20537461746520437B
:1012C00068616E67653A20307825303878202D3E89
:1012D000203078253038780A000000003D3D3D2060
:1012E00052542053797374656D205374617475730F
:1012F000203D3D3D0A000000557074696D653A203F
:101300002564207469636B730A000000436F6E7478
:101310006578742073776974636865733A2025640F
:101320000A00000041766720696E746572727570FC
:1013300074206C6174656E63793A2025642063794A
:10134000636C65730A0000003D3D3D3D3D3D3D3D04
:101350003D3D3D3D3D3D3D3D3D3D3D3D3D3D3D3DBD
:101360000A0000000A3D3D3D205069636F54696EDC
:1013700079205265616C2D54696D65204B65726EE4
:10138000656C2044656D6F203D3D3D0A0000000006
:10139000496E697469616C697A696E67205254207C
:1013A00073797374656D2E2E2E0A00004C45445FD0
:1013B000426C696E6B000000437265617465642065
:1013C0004C454420426C696E6B205461736B20283D
:1013D00049443A202564290A00000000554152542E
:1013E0005F446562756700004372656174656420DF
:1013F00055415254204465627567205461736B20D7
:101400002849443A202564290A000000436F756E7C
:10141000746572004372656174656420436F756E14
:10142000746572205461736B202849443A20256406
:10143000290A00004750494F5F4D6F6E69746F7203
:101440000000000043726561746564204750494F95
:10145000204D6F6E69746F72205461736B20284940
:10146000443A202564290A005374617274696E67D6
:10147000205254206B65726E656C2E2E2E0A000071
:101480005254204B65726E656C2073746172746582
:1014900064207375636365737366756C6C79210A78
:0414A0000000000048
:0414A400576200008B
:00000001FF
