:100000006F00000A1300000013000000130000003E
:10001000232E11FE232C51FE232A61FE232871FE7C
:100020002326A1FE2324B1FE2322C1FE2320D1FEDC
:10003000232EE1FC232CF1FC232A01FD232811FDB2
:100040002326C1FD2324D1FD2322E1FD2320F1FD40
:10005000130101FCEF2080458320C103832281032B
:1000600003234103832301030325C1028325810266
:1000700003264102832601020327C1018327810150
:100080000328410183280101032EC100832E810032
:10009000032F4100832F010013010104730020305E
:1000A0009701004093810176138101C1173500004B
:1000B00013050582970500409385C5F4138641809A
:1000C00063DCC5008326050023A0D5001305450089
:1000D00093854500E3C8C5FE1385418093858180E3
:1000E0006308B50023200500130545006FF05FFF8E
:1000F000172500001305C57D1301C1FF97250000DA
:100100009385057D630EB500832605001305450024
:100110002320A100E7800600032501006FF01FFEE9
:1001200013014100EF00107D6F000000130101FE7C
:10013000B7070081232C810003A4070003A7070051
:10014000B706C0FF9386F6FF3377D700232E110042
:1001500023A0E700B707004083A707001307F009B3
:100160002326E100130600003707400093054000F6
:100170001305C1003374E400E78007009307000211
:10018000370600832320F6000347D100B72700007D
:100190009387074B93564700B386D70083C6060064
:1001A0009305A0006388B6101377F7003387E70044
:1001B00003470700370600832320D6009306A000DC
:1001C000630CD710370600832320E60013070002D4
:1001D0002320E6000347E1009305A0009356470063
:1001E000B386D70083C606006380B6121377F70084
:1001F0003387E70003470700370600832320D60034
:100200009306A000630CD70E370600832320E60078
:10021000130700022320E6000347F1009305A00026
:1002200093564700B386D70083C606006382B60C98
:100230001377F7003387E70003470700B70700830A
:1002400023A0D7009306A000630ED708B70700834A
:1002500023A0E7001307D00023A0E7001307A000A6
:1002600023A0E70063040402370700818327070007
:100270008320C10103248101B7064000B3E7D70002
:100280002320F7001301010267800000B7060081F8
:1002900083A706003707C0FF8320C1010324810123
:1002A0001307F7FFB3F7E70023A0F60013010102DD
:1002B000678000001377F7003387E7009305D000CD
:1002C000034707002320B600370600832320D6000B
:1002D0009306A000E318D7EE9306D0002320D600A3
:1002E0006FF05FEE9306D00023A0D7006FF01FF6EB
:1002F0009305D0002320B6006FF09FF39306D00043
:100300002320D6006FF05FF09305D0002320B600C5
:100310006FF0DFED130101F0930F0500938E0500E0
:10032000F32200C0732F20C0B7B7B912130E4001DB
:100330009387170A13080110130300101306010016
:10034000930601001397D700B347F70013D717019F
:100350003347F70093175700B3C7E7002380F60031
:1003600093861600E310D8FE930601009305000063
:100370001307000003C5060093880510B388280002
:1003800093861600630605002380E8F09385150028
:1003900013071700E31067FE032706001306460045
:1003A000B3C7E700E31AC8FE130EFEFFE3180EF80A
:1003B000732500C0F32520C0639E0F003305554010
:1003C00063860E00B385E54123A0BE001301011032
:1003D0006780000037270000930630041307474C5E
:1003E0001308A000370600839308D00013071700F6
:1003F000638606492320D60083460700E39806FE5D
:1004000033055540372700001307074B9356C501A6
:10041000B306D70003C806009306A0006318D800EF
:10042000B70600831306D00023A0C60093568501AB
:1004300093F6F600B306D70003C60600B70600839E
:1004400023A006011308A000631606011308D000BC
:1004500023A006019356450193F6F600B306D70094
:1004600003C80600B706008323A0C6001306A00039
:100470006316C8001306D00023A0C60093560501DA
:1004800093F6F600B306D70003C60600B70600834E
:1004900023A006011308A000631606011308D0006C
:1004A00023A006019356C50093F6F600B306D700C5
:1004B00003C80600B706008323A0C6001306A000E9
:1004C0006316C8001306D00023A0C600935685000B
:1004D00093F6F600B306D70003C60600B7060083FE
:1004E00023A006011308A000631606011308D0001C
:1004F00023A006019356450093F6F600B306D700F5
:1005000003C80600B706008323A0C6001306A00098
:100510006316C8001306D00023A0C6009376F5002A
:10052000B306D70003C60600B706008323A0060162
:100530001308A000631606011308D00023A00601CB
:10054000B706008323A0C6001306D00023A0C60070
:100550001306A00023A0C600B726000013069004CF
:100560009386064D9308A000370800831303D0003C
:1005700093861600630E162D2320C80003C60600BE
:10058000E31806FEB386E54113D6C6013306C7005D
:10059000034806001306A0006318C800370600834E
:1005A0009308D0002320160113D686011376F60097
:1005B0003306C70083480600370600832320060160
:1005C0001308A000639608011308D0002320060139
:1005D00013D646011376F6003306C700034806001B
:1005E00037060083232016019308A0006316180124
:1005F0009308D0002320160113D606011376F600C7
:100600003306C7008348060037060083232006010F
:100610001308A000639608011308D00023200601E8
:1006200013D6C6001376F6003306C700034806004B
:1006300037060083232016019308A00063161801D3
:100640009308D0002320160113D686001376F600F7
:100650003306C700834806003706008323200601BF
:100660001308A000639608011308D0002320060198
:1006700013D646001376F6003306C700034806007B
:1006800037060083232016019308A0006316180183
:100690009308D0002320160193F6F600B306D70086
:1006A00003C60600B706008323A006011308A000B6
:1006B000631606011308D00023A00601B7060083C5
:1006C00023A0C6001306D00023A0C6001306A00076
:1006D00023A0C600B7260000130630049386C64D3B
:1006E0009308A000370800831303D00093861600F8
:1006F0006300161D2320C80003C60600E31806FE8B
:1007000093D6C701B306D70003C606009306A00020
:100710006318D600B70600831308D00023A0060193
:1007200093D6870193F6F600B306D70003C80600F8
:10073000B706008323A0C6001306A0006316C800F6
:100740001306D00023A0C60093D6470193F6F60007
:10075000B306D70003C60600B706008323A0060130
:100760001308A000631606011308D00023A0060199
:1007700093D6070193F6F600B306D70003C8060028
:10078000B706008323A0C6001306A0006316C800A6
:100790001306D00023A0C60093D6C70093F6F60038
:1007A000B306D70003C60600B706008323A00601E0
:1007B0001308A000631606011308D00023A0060149
:1007C00093D6870093F6F600B306D70003C8060059
:1007D000B706008323A0C6001306A0006316C80056
:1007E0001306D00023A0C60093D6470093F6F60068
:1007F000B306D70003C60600B706008323A0060190
:100800001308A000631606011308D00023A00601F8
:1008100093F7F700B307F70003C70700B707008394
:1008200023A0C7009306A0006316D7009306D0004C
:1008300023A0D700B707008323A0E7001307D00049
:1008400023A0E7001307A00023A0E7006FF05FB725
:10085000232068002320C80003C60600E31A06D040
:10086000B386E54113D6C6013306C7000348060028
:100870001306A000E304C8D26FF01FD32320160193
:100880002320D60083460700E39206B63305554081
:10089000372700001307074B9356C501B306D7004F
:1008A00003C806009306A000E30CD8B66FF01FB88B
:1008B000232068002320C80003C60600E31806E2D0
:1008C0006FF01FE4130101FE37270000232E1100F3
:1008D000232C8100232A9100232601009307400640
:1008E0001307874E1306A000B70600839305D000B8
:1008F000130717006386C77E23A0F600834707000F
:10090000E39807FEB707008103A70700B706C0FFFB
:100910009386F6FF3377D70023A0E70083A607006E
:100920003706F0FF1306F6FFB3F6C60037270000C0
:1009300023A0D7009304874F9307A0031307874F83
:100940001306A000B70600839305D0001307170015
:10095000638EC77623A0F60083470700E39807FE5F
:100960009305C10013050000EFF0DF9A3724000063
:100970001304044B9357C501B307F40083C6070063
:100980009307A0006398F600B70700831307D00011
:1009900023A0E7009357850193F7F700B307F4000E
:1009A00003C70700B707008323A0D7009306A00062
:1009B0006316D7009306D00023A0D70093574501B4
:1009C00093F7F700B307F40083C60700B707008367
:1009D00023A0E7001307A0006396E6001307D000EA
:1009E00023A0E7009357050193F7F700B307F4003E
:1009F00003C70700B707008323A0D7009306A00012
:100A00006316D7009306D00023A0D7009357C500E4
:100A100093F7F700B307F40083C60700B707008316
:100A200023A0E7001307A0006396E6001307D00099
:100A300023A0E7009357850093F7F700B307F4006E
:100A400003C70700B707008323A0D7009306A000C1
:100A50006316D7009306D00023A0D7009357450014
:100A600093F7F700B307F40083C70700B7060083C6
:100A700023A0E6001307A0006396E7001307D00049
:100A800023A0E6001375F5003305A4000347050015
:100A9000B706008323A0F6009307A0006316F700B3
:100AA0009307D00023A0F600B707008323A0E70038
:100AB0001307D00023A0E7001307A00023A0E7003E
:100AC00037270000930740061307C74F1306A000FF
:100AD000B70600839305D00013071700638EC75C29
:100AE00023A0F60083470700E39807FEB7070083BB
:100AF0001307000323A0E700372700009307000235
:100B0000130747501306A000B70600839305D000D3
:100B1000130717006388C75823A0F6008347070010
:100B2000E39807FEB706008103A7060037064000DA
:100B30009307A0033367C70023A0E6001306A000B5
:100B400013870400B70600839305D000130717002E
:100B50006380C75423A0F60083470700E39807FE8D
:100B60009305C10013050000EFF0CFFA9357C501BC
:100B7000B307F40083C607009307A0006398F6004C
:100B8000B70700831307D00023A0E7009357850120
:100B900093F7F700B307F40003C70700B707008314
:100BA00023A0D7009306A0006316D7009306D000B9
:100BB00023A0D7009357450193F7F700B307F4003C
:100BC00083C60700B707008323A0E7001307A00030
:100BD0006396E6001307D00023A0E70093570501B2
:100BE00093F7F700B307F40003C70700B7070083C4
:100BF00023A0D7009306A0006316D7009306D00069
:100C000023A0D7009357C50093F7F700B307F4006C
:100C100083C60700B707008323A0E7001307A000DF
:100C20006396E6001307D00023A0E70093578500E2
:100C300093F7F700B307F40003C70700B707008373
:100C400023A0D7009306A0006316D7009306D00018
:100C500023A0D7009357450093F7F700B307F4009C
:100C600083C70700B706008323A0E6001307A00090
:100C70006396E7001307D00023A0E6001375F50084
:100C80003305A40003470500B706008323A0F60040
:100C90009307A0006316F7009307D00023A0F60087
:100CA000B707008323A0E7001307D00023A0E700C5
:100CB0001307A00023A0E700372700009307400692
:100CC000130707511306A000B70600839305D00051
:100CD000130717006384C73A23A0F6008347070071
:100CE000E39807FEB70700831307000323A0E7007C
:100CF0003727000093070002130787501306A00050
:100D0000B70600839305D00013071700638EC7341E
:100D100023A0F60083470700E39807FEB70600818B
:100D200003A70600370610009307A0033367C70028
:100D300023A0E6001306A00013870400B706008373
:100D40009305D000130717006386C73023A0F60071
:100D500083470700E39807FE9305C10013050000D1
:100D6000EFF04FDB9357C501B307F40083C60700CC
:100D70009307A0006398F600B70700831307D0001D
:100D800023A0E7009357850193F7F700B307F4001A
:100D900003C70700B707008323A0D7009306A0006E
:100DA0006316D7009306D00023A0D70093574501C0
:100DB00093F7F700B307F40083C60700B707008373
:100DC00023A0E7001307A0006396E6001307D000F6
:100DD00023A0E7009357050193F7F700B307F4004A
:100DE00003C70700B707008323A0D7009306A0001E
:100DF0006316D7009306D00023A0D7009357C500F1
:100E000093F7F700B307F40083C60700B707008322
:100E100023A0E7001307A0006396E6001307D000A5
:100E200023A0E7009357850093F7F700B307F4007A
:100E300003C70700B707008323A0D7009306A000CD
:100E40006316D7009306D00023A0D7009357450020
:100E500093F7F700B307F40083C70700B7060083D2
:100E600023A0E6001307A0006396E7001307D00055
:100E700023A0E6001375F5003305A4000347050021
:100E8000B706008323A0F6009307A0006316F700BF
:100E90009307D00023A0F600B707008323A0E70044
:100EA0001307D00023A0E7001307A00023A0E7004A
:100EB00037270000930790061307C7511306A000B9
:100EC000B70600839305D00013071700638AC7167F
:100ED00023A0F60083470700E39807FE8326C1009E
:100EE0009307A00013D7C6013307E40003460700A9
:100EF0006318F600B70700831307D00023A0E700AC
:100F000093D7860193F7F700B307F40003C70700F0
:100F1000B707008323A0C7001306A0006316C7000D
:100F20001306D00023A0C70093D7460193F7F7001C
:100F3000B307F40003C60700B707008323A0E70048
:100F40001307A0006316E6001307D00023A0E700F4
:100F500093D7060193F7F700B307F40003C7070020
:100F6000B707008323A0C7001306A0006316C700BD
:100F70001306D00023A0C70093D7C60093F7F7004D
:100F8000B307F40003C60700B707008323A0E700F8
:100F90001307A0006316E6001307D00023A0E700A4
:100FA00093D7860093F7F700B307F40003C7070051
:100FB000B707008323A0C7001306A0006316C7006D
:100FC0001306D00023A0C70093D7460093F7F7007D
:100FD000B307F40003C60700B707008323A0E700A8
:100FE0001307A0006316E6001307D00023A0E70054
:100FF00093F7F600B307F40003C70700B7070083B1
:1010000023A0C7009306A0006316D7009306D00064
:1010100023A0D700B707008323A0E7008320C101E6
:10102000032481011307D00023A0E7001307A000C9
:1010300023A0E7008324410113010102678000001F
:1010400023A0B60023A0F60083470700E39E07E62F
:101050006FF0DFE823A0B60023A0F6008347070067
:10106000E39207CE6FF05FCF23A0B60023A0F60077
:1010700083470700E39A07C86FF05FCA23A0B60052
:1010800023A0F60083470700E39407C46FF09FC5D1
:1010900023A0B60023A0F60083470700E39807AA21
:1010A0006FF01FAC23A0B60023A0F6008347070013
:1010B000E39007A66FF01FA723A0B60023A0F600B9
:1010C00083470700E39A07A06FF05FA223A0B60052
:1010D00023A0F60083470700E39A07866FF05F8836
:1010E00023A0B60023A0F60083470700E392078001
:1010F0006FF05F81130101E7232611182324811863
:101100002322911823202119232E3117232C411734
:10111000232A5117232861172326711723248117A7
:10112000232291172320A117232EB11537070083FF
:101130009307800D2322F7009306F003B707008280
:1011400023A4D70023A0D700B707008183A60700F8
:10115000370610009305A000B3E6C60023A0D70011
:1011600083A6070037064000B3E6C60023A0D700D9
:101170009307D0002320F7009307A0002320F70057
:10118000372700009307000213070753B7060083B1
:101190001306D00013071700638CB77223A0F60064
:1011A00083470700E39807FE3727000093070002F4
:1011B000130787559305A000B70600831306D000D8
:1011C000130717006380B77223A0F6008347070058
:1011D000E39807FE3727000093070002130707581C
:1011E0009305A000B70600831306D000130717006D
:1011F0006384B77023A0F60083470700E39807FED7
:1012000037270000930700021307475A9305A000F1
:10121000B70600831306D000130717006388B76E64
:1012200023A0F60083470700E39807FE3727000056
:10123000930700021307C75C9305A000B70600835D
:101240001306D000130717006388B76E23A0F600BB
:1012500083470700E39807FEB70700831307D00012
:1012600023A0E7001307A00023A0E7003727000012
:10127000930700021307475F1306A0001307170028
:10128000B7060083638EC76823A0F6008347070074
:10129000E39607FEB70700831307D00023A0E700FB
:1012A0001307A00023A0E700B707004023A2070010
:1012B00083A64700372700001307F770634CD70059
:1012C00083A647009386160023A2D70083A6470073
:1012D000E358D7FE370700829306E0032320D700A8
:1012E00023A2070083A64700372700001307F770E3
:1012F000634CD70083A647009386160023A2D7002D
:1013000083A64700E358D7FE370700829306D00331
:101310002320D70023A2070083A647003727000019
:101320001307F770634CD70083A647009386160017
:1013300023A2D70083A64700E358D7FE37070082D1
:101340009306B0032320D70023A2070083A64700FB
:10135000372700001307F770634CD70083A64700B8
:101360009386160023A2D70083A64700E358D7FE32
:1013700037070082930670032320D70023A20700BB
:1013800083A64700372700001307F770634CD70088
:1013900083A647009386160023A2D70083A64700A2
:1013A000E358D7FE370700829306F0022320D700C8
:1013B00023A2070083A64700372700001307F77012
:1013C000634CD70083A647009386160023A2D7005C
:1013D00083A64700E358D7FE370700829306F00143
:1013E0002320D70023A2070083A647003727000049
:1013F0001307F770634CD70083A647009386160047
:1014000023A2D70083A64700E358D7FE3707008200
:101410009306F0032320D70023A2070083A64700EA
:10142000372700001307F770634CD70083A64700E7
:101430009386160023A2D70083A64700E358D7FE61
:10144000370700822320070023A2070083A6470056
:10145000372700001307F770634CD70083A64700B7
:101460009386160023A2D70083A64700E358D7FE31
:10147000370700829306F0032320D70023A207003A
:1014800083A64700372700001307F770634CD70087
:1014900083A647009386160023A2D70083A64700A1
:1014A000E358D7FEB7290000938749613729000028
:1014B0002326F104930709642324F100B7270000D1
:1014C000938787652326F100B72700009387076776
:1014D0002328F100B727000093878768232AF100AB
:1014E000B72700009387076A232CF100B727000075
:1014F0009387876B232EF100B72700009387076D32
:101500002320F102B72700009387C76E2322F10240
:10151000B7270000938787702324F102B7270000C4
:10152000938707722326F102B72700009387C773BA
:101530002328F102B727000093870776232AF102B8
:10154000B72700009387477A232CF102B7270000C2
:101550009387877B37240000232EF1029307047BB7
:101560002322F100B72700009387474C2320F10482
:10157000B72700009387074D2322F104B727000007
:10158000372F0000B72B0000372C0000372D00004C
:10159000B7220000B72400009387C74D372E000004
:1015A000130F8F62938B0B4B130CCC78130D0D7CA8
:1015B000938282799384C47A2324F10493090E7868
:1015C000370A0083130BD000930AA0001309A00070
:1015D0000327C10423206A0123202A019307300531
:1015E00013071700E38E57292320FA0083470700CB
:1015F000E39807FE23206A0123205A019307000283
:1016000013070F0013071700E38257272320FA0060
:1016100083470700E39807FE032781009307000232
:1016200013071700E38A57232320FA008347070094
:10163000E39807FE0327C100930700021307170072
:10164000E38257212320FA0083470700E39807FE2F
:10165000032701019307000213071700E38A571DB0
:101660002320FA0083470700E39807FE0327410180
:101670009307000213071700E382571B2320FA0089
:1016800083470700E39807FE0327810193070002C1
:1016900013071700E38A57172320FA008347070030
:1016A000E39807FE0327C101930700021307170001
:1016B000E38257152320FA0083470700E39807FECB
:1016C000032701029307000213071700E382572143
:1016D0002320FA0083470700E39807FE032741020F
:1016E0009307000213071700E38A571D2320FA000F
:1016F00083470700E39807FE032781029307000250
:1017000013071700E382571B2320FA0083470700C3
:10171000E39807FE0327C10293070002130717008F
:10172000E38A57172320FA0083470700E39807FE50
:10173000032701039307000213071700E38E571BCB
:101740002320FA0083470700E39807FE032741039D
:101750009307000213071700E38657192320FA00A6
:1017600083470700E39807FE930CA000B70D0082A3
:101770001304F0FF23206A0123202A019307900419
:101780001387090013071700638657772320FA0091
:1017900083470700E39807FE83A74D0013D7C701CF
:1017A0003387EB00034607006308567713D787019A
:1017B0001377F7003387EB00834607002320CA0026
:1017C000638A567713D747011377F7003387EB0007
:1017D000034607002320DA00630C567713D707016E
:1017E0001377F7003387EB00834607002320CA00F6
:1017F000638E567713D7C7001377F7003387EB0054
:10180000034607002320DA006300567913D78700C8
:101810001377F7003387EB00834607002320CA00C5
:101820006382567913D747001377F7003387EB00AD
:10183000034707002320DA006304577993F7F70082
:10184000B387FB0083C707002320EA00638657792C
:101850002320FA0023206A0123205A0123206A0151
:1018600023205A019307300413070C0013071700B5
:10187000638857772320FA0083470700E39807FE21
:10188000F32700C0F32700C083270A00E38C87FEFC
:101890001387F7FD1377F70F9306D00593F7F70F2C
:1018A00063E6E6006384570B2320FA0023206A01D5
:1018B00023205A019387F7FC130720046360F70A7B
:1018C00093972700B307FD0083A7070067800700F1
:1018D00023A0C60023A0F60083470700E39C078AE5
:1018E0006FF09F8C23A0C60023A0F600834707005B
:1018F000E398078C6FF01F8E23A0C60023A0F6008C
:1019000083470700E394078E6FF09F8F23A0C600E4
:1019100023A0F60083470700E39007906FF01F9124
:101920009305D00023A0B60023A0F600834707004C
:10193000E39607946FF01F9623A0C60023A0F6003D
:1019400083470700E39007906FF01F9123206A01FF
:1019500023205A0123206A0123205A01938CFCFF83
:10196000E39A0CE06FF0DFC623206A0123205A01BE
:10197000930730051387020013071700E3845731DC
:101980002320FA0083470700E39807FE032781031B
:101990009307000213071700E38A57292320FA0050
:1019A00083470700E39807FEB707008183A7070076
:1019B000139797009307F004E35C0728138704004C
:1019C00013071700E38A572D2320FA0083470700E7
:1019D000E39807FE0327C1039307000213071700CC
:1019E000638657732320FA0083470700E39807FEB6
:1019F000B707008183A707001397B7009307F00488
:101A0000635807721387040013071700638C57018C
:101A10002320FA0083470700E38207F41307170027
:101A2000E39857FF23206A012320FA008347070029
:101A3000E39C07FC938CFCFFE39E0CD26FF05FB934
:101A4000EFE0CFEEB727000093828779938CFCFFFD
:101A5000B7270000138F8762E39E0CD06FF05FB74B
:101A6000B707008103A70700B706C0FF9386F6FFFC
:101A70003377D70023A0E70003A70700B706F0FFDE
:101A80009386F6FF3377D70023A0E700938CFCFF03
:101A9000E3920CCE6FF0DFB3B707008103A7070016
:101AA000B706F0FF9386F6FF3377D70023A0E70051
:101AB00003A70700B7064000938CFCFF3367D700ED
:101AC00023A0E700E3980CCA6FF09FB0B70700812E
:101AD00003A70700B70610003367D7006FF01FFD9C
:101AE000732600C0732720C0B7B7B912930840010E
:101AF0009387170A13050115130800101303010536
:101B000093050300938607009397D600B3C7D700C9
:101B100093D61701B3C7D70093965700B3C6D70023
:101B20002380D50093851500E390A5FE93870600DA
:101B300093050105930E00009306000003CE0500F7
:101B4000630C0E00138E0E10930F0105330EFE0171
:101B50002300DEF0938E1E009386160093851500F9
:101B6000E39E06FD8326030013034300B3C7D7009B
:101B7000E31AA3FE9388F8FFE39208F8F32600C067
:101B8000732820C0032501049305300413051500B4
:101B90006388557B2320BA0083450500E39805FE42
:101BA000B386C64013D6C6013386CB000345060074
:101BB000630A557B13D686011376F6003386CB0075
:101BC000834506002320AA00638C557B13D646016B
:101BD0001376F6003386CB00034506002320BA00B7
:101BE000630E557B13D606011376F6003386CB00C1
:101BF000834506002320AA006380557D13D6C600C6
:101C00001376F6003386CB00034506002320BA0086
:101C10006302557D13D686001376F6003386CB001B
:101C2000834506002320AA006384557D13D6460011
:101C30001376F6003386CB00034606002320BA0055
:101C40006306567D93F6F600B386DB0083C6060076
:101C50002320CA006388567D2320DA00032641042E
:101C600023206A0123205A019306900413061600CC
:101C7000638E564F2320DA0083460600E39806FE63
:101C80003307E8409356C701B386DB0083C50600DF
:101C9000638055519356870193F6F600B386DB00B7
:101CA00003C606002320BA0063025651935647012B
:101CB00093F6F600B386DB0083C506002320CA0036
:101CC000638455519356070193F6F600B386DB0003
:101CD00003C606002320BA00630656519356C70078
:101CE00093F6F600B386DB0083C506002320CA0006
:101CF000638855519356870093F6F600B386DB0050
:101D000003C606002320BA00630A565193564700C3
:101D100093F6F600B386DB0083C606002320CA00D4
:101D2000638C56511377F7003387EB0003470700A6
:101D30002320DA00630E57512320EA008326810412
:101D400023206A0123205A011307300493861600CA
:101D5000630457512320EA0003C70600E31807FE77
:101D600013D7C7013387EB000346070063065651BC
:101D700013D787011377F7003387EB0083460700FB
:101D80002320CA006388565113D747011377F70001
:101D90003387EB00034607002320DA00630A56511D
:101DA00013D707011377F7003387EB00834607004B
:101DB0002320CA00638C565113D7C7001377F7004E
:101DC0003387EB00034607002320DA00630E5651E9
:101DD00013D787001377F7003387EB00834607009C
:101DE0002320CA006380565313D747001377F700A8
:101DF0003387EB00034707002320DA0063025753C1
:101E000093F7F700B387FB0083C707002320EA009E
:101E1000638457532320FA0023206A0123205A01A8
:101E2000938CFCFFE3980C946FF08FFAEFE09FA97E
:101E3000B727000093828779938CFCFFB7270000B7
:101E4000138F8762E3980C926FF08FF83707008248
:101E500083270700938CFCFF93C787002320F7009C
:101E6000E39A0C906FF0CFF63707008283270700C4
:101E7000938CFCFF93C747002320F700E39C0C8E54
:101E80006FF00FF53707008283270700938CFCFF64
:101E900093C727002320F700E39E0C8C6FF04FF3CD
:101EA0003707008283270700938CFCFF93C7170036
:101EB0002320F700E3900C8C6FF08FF1370700823E
:101EC00083270700938CFCFF93C707022320F700AA
:101ED000E3920C8A6FF0CFEF370700828327070069
:101EE000938CFCFF93C707012320F700E3940C8831
:101EF0006FF00FEE23206A012320FA0083470700CA
:101F0000E392078883A74D0013D7C7013387EB00FF
:101F100003460700E31C568913D787011377F700A0
:101F20003387EB008346070023206A012320CA0081
:101F3000E39A568913D747011377F7003387EB00ED
:101F40000346070023206A012320DA00E31856899C
:101F500013D707011377F7003387EB008346070099
:101F600023206A012320CA00E396568913D7C700AD
:101F70001377F7003387EB000346070023206A013D
:101F80002320DA00E314568913D787001377F7006C
:101F90003387EB008346070023206A012320CA0011
:101FA000E392568913D747001377F7003387EB0086
:101FB0000347070023206A012320DA00E310578932
:101FC00093F7F700B387FB0083C7070023206A015C
:101FD0002320EA00E39E578723206A016FF05F8782
:101FE00023206A012320FA0083470700E390078833
:101FF0006FF01F8923206A012320FA00834707001E
:10200000639607EA6FF0CFEB23206A012320FA00E2
:1020100083470700639E07E66FF0CFE823206A013D
:102020002320FA0083470700639607E46FF0CFE5AB
:1020300023206A012320FA0083470700639E07E0FC
:102040006FF0CFE223206A012320FA0083470700C4
:10205000639607DE6FF0CFDF23206A012320FA00AA
:1020600083470700639E07DA6FF0CFDC23206A0105
:102070002320FA0083470700639607D86FF0CFD973
:1020800023206A012320FA0083470700639A07D4BC
:102090006FF04FD623206A012320FA008347070000
:1020A000639E07E66FF0CFE823206A012320FA0041
:1020B00083470700639607E46FF0CFE523206A01AA
:1020C0002320FA0083470700639E07E06FF0CFE20A
:1020D00023206A012320FA0083470700639607DE66
:1020E0006FF0CFDF23206A012320FA008347070027
:1020F000639207E66FF04FE723206A012320FA007E
:1021000083470700639A07E26FF04FE423206A01D8
:102110002320FA0083470700E392078CB70700816A
:1021200083A707001397B7009307F004E34C078CCD
:102130000327410013071700638C57012320FA007F
:1021400083470700E38C078013071700E39857FFC6
:1021500023206A012320FA0083470700E39C07FC41
:10216000938CFCFF63980CE06FF08FC623206A010C
:102170002320DA0083460600E39A06AE3307E840E0
:102180009356C701B386DB0083C50600E39455B1BF
:102190009356870193F6F600B386DB0003C606006C
:1021A00023206A012320BA00E31256B19356470157
:1021B00093F6F600B386DB0083C5060023206A0190
:1021C0002320CA00E39055B19356070193F6F60019
:1021D000B386DB0003C6060023206A012320BA0071
:1021E000E31E56AF9356C70093F6F600B386DB00A6
:1021F00083C5060023206A012320CA00E39C55AF53
:102200009356870093F6F600B386DB0003C60600FC
:1022100023206A012320BA00E31A56AF93564700E1
:1022200093F6F600B386DB0083C6060023206A011E
:102230002320CA00E39856AF1377F7003387EB00EB
:102240000347070023206A012320DA00E31657AF73
:1022500023206A016FF05FAE23206A012320EA0089
:1022600003C70600E31407AE13D7C7013387EB009B
:1022700003460700E31E56AF13D787011377F70015
:102280003387EB008346070023206A012320CA001E
:10229000E39C56AF13D747011377F7003387EB0062
:1022A0000346070023206A012320DA00E31A56AF11
:1022B00013D707011377F7003387EB008346070036
:1022C00023206A012320CA00E39856AF13D7C70022
:1022D0001377F7003387EB000346070023206A01DA
:1022E0002320DA00E31656AF13D787001377F700E1
:1022F0003387EB008346070023206A012320CA00AE
:10230000E39456AF13D747001377F7003387EB00FA
:102310000347070023206A012320DA00E31257AFA6
:1023200093F7F700B387FB0083C7070023206A01F8
:102330002320EA00E39057AF23206A016FF09FAD9E
:1023400023206A012320BA0083450500E390058419
:10235000B386C64013D6C6013386CB0003450600BC
:10236000E31A558513D686011376F6003386CB0023
:102370008345060023206A012320AA00E39855859F
:1023800013D646011376F6003386CB0003450600CC
:1023900023206A012320BA00E316558513D60601CF
:1023A0001376F6003386CB008345060023206A01AE
:1023B0002320AA00E394558513D6C6001376F600B1
:1023C0003386CB000345060023206A012320BA0090
:1023D000E312558513D686001376F6003386CB00BC
:1023E0008345060023206A012320AA00E390558537
:1023F00013D646001376F6003386CB00034606005C
:1024000023206A012320BA00E31E568393F6F600C8
:10241000B386DB0083C6060023206A012320CA009E
:10242000E39C568323206A016FF01F8323206A01F7
:102430002320FA0083470700639E07D4B707008173
:1024400083A70700139797009307F004634807D604
:102450000327410013071700638C57012320FA005C
:1024600083470700638807D613071700E39857FFD1
:1024700023206A012320FA0083470700E39C07FC1E
:102480006FF04FD523206A012320FA00834707000D
:10249000639407CE6FF08FCF23206A012320FA00C8
:1024A00083470700639E07D06FF0CFD2678000009C
:1024B00030313233343536373839616263646566BA
:1024C000000000004379636C65733A2030780000A7
:1024D000496E73746E733A203078000043686B73F2
:1024E000756D3A203078000064656661756C742003
:1024F00020202020202020003A20000064737069F2
:102500002D0000002020202020202020200000007E
:10251000647370692D63726D2D000000696E7374B1
:102520006E732020202020202020203A2000000050
:1025300020205F5F5F5F20205F2020202020202060
:102540002020205F5F5F5F2020202020202020208F
:102550005F5F5F5F0A000000207C20205F205C2816
:102560005F29205F5F5F205F5F5F2F205F5F5F7C81
:1025700020205F5F5F20202F205F5F5F7C0A0000CC
:10258000207C207C5F29207C207C2F205F5F2F20F7
:102590005F205C5F5F5F205C202F205F205C7C20E1
:1025A0007C0A0000207C20205F5F2F7C207C20287C
:1025B0005F7C20285F29207C5F5F29207C20285FAA
:1025C00029207C207C5F5F5F0A000000207C5F7C0C
:1025D0002020207C5F7C5C5F5F5F5C5F5F5F2F5FC4
:1025E0005F5F5F2F205C5F5F5F2F205C5F5F5F5FDF
:1025F0007C0A000020202020202020204F6E204C2C
:1026000069636865652054616E67204E616E6F2D49
:10261000394B0A0053656C65637420616E206163F9
:1026200074696F6E3A0A00002020205B315D2054EF
:102630006F67676C65206C656420310A00000000DC
:102640002020205B325D20546F67676C65206C65CD
:102650006420320A000000002020205B335D2054FB
:102660006F67676C65206C656420330A00000000AA
:102670002020205B345D20546F67676C65206C659B
:102680006420340A000000002020205B355D2054C7
:102690006F67676C65206C656420350A0000000078
:1026A0002020205B365D20546F67676C65206C6569
:1026B0006420360A000000002020205B465D204791
:1026C000657420666C617368206D6F64650A000034
:1026D0002020205B495D20526561642053504920D1
:1026E000666C6173682049440A0000002020205B6A
:1026F000535D205365742053696E676C6520535099
:1027000049206D6F64650A002020205B445D2053E2
:1027100065742044535049206D6F64650A000000C1
:102720002020205B435D2053657420445350492B87
:1027300043524D206D6F64650A0000002020205B2D
:10274000425D2052756E2073696D706C6973746997
:10275000632062656E63686D61726B0A0000000041
:102760002020205B415D2042656E63686D61726B65
:1027700020616C6C20636F6E666967730A000000ED
:10278000494F2053746174653A200000436F6D6DAA
:10279000616E643E20000000535049205374617400
:1027A000653A0A0020204453504920004F4E0A0049
:1027B0004F46460A00000000202043524D202000D2
:1027C000A01E0000841E0000681E00004C1E0000B9
:1027D000D81E0000BC1E00005C1900005C1900003F
:1027E0005C1900005C1900005C1900005C19000015
:1027F0005C1900005C1900005C1900005C19000005
:102800002C1E0000E01A0000CC1A0000981A0000EC
:102810005C190000681900005C1900005C190000D8
:10282000401A00005C1900005C1900005C190000EF
:102830005C1900005C1900005C1900005C190000C4
:102840005C1900005C190000601A00005C190000AF
:102850005C1900005C1900005C1900005C190000A4
:102860005C1900005C1900005C1900005C19000094
:102870005C1900005C1900005C1900005C19000084
:102880002C1E0000E01A0000CC1A0000981A00006C
:102890005C190000681900005C1900005C19000058
:1028A000401A00005C1900005C1900005C1900006F
:1028B0005C1900005C1900005C1900005C19000044
:0C28C0005C1900005C190000601A0000A8
:0428CC005400008034
:00000001FF
